:1000000000400020710D0000B10D0000B30D000094
:1000100000000000000000000000000000000000E0
:10002000000000000000000000000000B50D00000E
:100030000000000000000000B70D0000B90D000036
:10004000BB0D0000BB0D0000BB0D0000BB0D000090
:10005000BB0D000000000000BB0D0000BB0D000048
:10006000BB0D0000BB0D0000BB0D0000BB0D000070
:10007000BB0D0000BB0D0000BB0D0000BB0D000060
:10008000BB0D0000BB0D0000BB0D0000BB0D000050
:10009000BB0D0000BB0D0000BB0D0000BB0D000040
:1000A000BB0D0000BB0D00000000000000000000C0
:1000B0000000000000000000000000000000000040
:1000C000054B0648033310B51B1A062B03D9044B06
:1000D000002B00D0984710BD4004002040040020B1
:1000E000000000000648074910B5091A8910CB0F17
:1000F0005918491003D0044B002B00D0984710BD6D
:1001000040040020400400200000000010B5074C0F
:100110002378002B09D1FFF7D3FF054B002B02D02A
:10012000044800E000BF0123237010BD40040020FC
:1001300000000000F4120000094B10B5002B03D0A2
:100140000849094800E000BF08480368002B02D1B5
:10015000FFF7C8FF10BD064B002BF9D09847F7E713
:100160000000000044040020F41200003C040020C1
:1001700000000000144B002B00D1124B9D46402282
:1001800092029A1A924600218B460F461148124A53
:10019000121A00F055FF0D4B002B00D098470C4B66
:1001A000002B00D098470020002104000D000B48D0
:1001B00000F0F0FE00F020FF2000290000F010F811
:1001C00000F0F0FE000008000040002000000000E9
:1001D00000000000400400205C040020C50F000067
:1001E00090B585B002AF00F01FF800F00DFBBA1C0F
:1001F000391DBB1D180000F026FBBB1D00229B5EB5
:100200001A003B1D00215B5E1C00BB1C00215B5ED5
:10021000034904480093230000F072FCE7E7C0465E
:10022000D4120000AD02000080B500AF194AA0232F
:10023000DB000021D150A023DA05EC23DB000121F3
:10024000D150A023DB05144A002199501149A12364
:10025000DB0001225242CA500E49A223DB000122D8
:100260005242CA500B4A0D4B1821D150094A0C4B2F
:100270001921D150074A0B4B0B49D150054AA023F5
:10028000DB000421D150034B01221A60C046BD4659
:1002900080BDC04600200040640700000C0500003F
:1002A00014050000240500000050270080B582B02E
:1002B00000AF0200FB1D1A700D4B01229A600C4921
:1002C000FB1D1B780B4A8B50C046094A8E235B00EE
:1002D000D358002BF9D0064A8E235B000021D15061
:1002E000034B0122DA60C046BD4602B080BDC04665
:1002F000002000401C05000080B582B000AF78608F
:10030000144B01225A60134B0122DA60114A124B3E
:100310000021D1500F4AA123DB000221D1500D4A08
:1003200080239B000121D1500A4AA0235B000021B9
:10033000D150084AA223DB000021D1500549A8234F
:10034000DB007A68CA50034B01221A60C046BD46E2
:1003500002B080BD009000400405000080B500AFF1
:10036000034B1800FFF7C8FFC046BD4680BDC0461E
:1003700000127A0080B500AF034AA0235B00D35877
:10038000DBB21800BD4680BD0090004080B582B051
:1003900000AF2A4AA023DB000021D150A023DA05B8
:1003A000E023DB000121D150A023DA05EF23DB009D
:1003B0000121D150A023DA05A123DB002049D1502F
:1003C000204B1800FFF798FFFB1D00221A7027E052
:1003D000C0461D4AA0235B00D358002BF9D0A023B0
:1003E000DB051A4A01219950174AA0235B0000211E
:1003F000D150C046144AA0235B00D358002BF9D03B
:10040000A023DA05A123DB000121D1500E4AA0234D
:100410005B000021D150FB1D1A78FB1D01321A70C0
:10042000FB1D1B78082BD3D9074B01225A6000F023
:1004300025F9C046BD4602B080BDC0460030004030
:100440000100004000710200009000400C05000017
:1004500090B585B000AF0400080011003B60FB1DA3
:10046000221C1A70BB1D021C1A707B1D0A1C1A70FC
:100470004849FB1D1A78B123DB00CA50454B0122C5
:100480009A60444A8E235B000021D1504149BB1D34
:100490001B78414A8B50FFF761FF05E0FFF76AFFC9
:1004A000031E01D0002370E03A4A8E235B00D3582C
:1004B000002BF3D00F23FB1800221A7007E0C04670
:1004C0000F23FB181A780F23FB1801321A700F2321
:1004D000FB181B78092BF2D92E4A84235B000021DC
:1004E000D1502C4B01221A600E23FB1800221A70E7
:1004F00025E0FFF733FF05E0FFF73CFF031E01D0C7
:10050000002342E0234A84235B00D358002BF3D01E
:10051000204A84235B000021D1500E23FB181B7856
:100520003A68D3181B49A322D2008A58D2B21A7053
:100530000E23FB181A780E23FB1801321A700E23B3
:10054000FB181A787B1D1B78013B9A42D1DB114BBB
:1005500001225A61FFF702FF05E0FFF70BFF031EC0
:1005600001D0002311E00B4A84235B00D358002BF9
:10057000F3D07B1D1B78013B3A68D3180549A322B1
:10058000D2008A58D2B21A7001231800BD4605B0B5
:1005900090BDC046003000401C05000090B585B0FD
:1005A00000AF0400080011003B60FB1D221C1A7004
:1005B000BB1D021C1A707B1D0A1C1A702D49FB1DE5
:1005C0001A78B123DB00CA502A4B01229A60294ACB
:1005D0008E235B000021D1502649BB1D1B78264A83
:1005E0008B50FFF7BBFE05E0FFF7C4FE031E01D0F2
:1005F00000233AE01F4A8E235B00D358002BF3D030
:100600000F23FB1800221A7024E01A4A8E235B0085
:100610000021D15017490F23FB181B783A68D318D3
:100620001B781A00144BCA50FFF798FE05E0FFF73D
:10063000A1FE031E01D0002317E00E4A8E235B00AB
:10064000D358002BF3D00F23FB181A780F23FB1875
:1006500001321A700F23FA187B1D12781B789A4208
:10066000D3D3044B01225A6101231800BD4605B0C3
:1006700090BDC046003000401C05000080B500AFB2
:100680001B4AA023DB000021D150A023DA05E02380
:10069000DB00C021C900D150A023DA05EF23DB0025
:1006A000C021C900D150124A84235B000021D150DF
:1006B0000F4A8E235B000021D1500D4A92235B002C
:1006C0000021D1500A4AA123DB000021D150084A61
:1006D000084B1E21D1500649074ACC235B048B509E
:1006E000034AA023DB000521D150C046BD4680BD92
:1006F000003000400C05000024050000B0B584B0B7
:1007000000AF0400080011003B60FB1D221C1A70A2
:10071000BB1D021C1A707B1D0A1C1A700F23FC18CB
:100720003D687B1D1A78BB1D1978FB1D18782B00BE
:10073000FFF78EFE030023700F23FB181B78002B9E
:1007400002D1FFF723FEE9E7C046C046BD4604B02C
:10075000B0BDB0B584B000AF0400080011003B602C
:10076000FB1D221C1A70BB1D021C1A707B1D0A1C6B
:100770001A700F23FC183D687B1D1A78BB1D197871
:10078000FB1D18782B00FFF709FF030023700F23D0
:10079000FB181B78002B02D1FFF7F8FDE9E7C046F4
:1007A000C046BD4604B0B0BD80B582B000AF020007
:1007B000FB1D1A70BB1D0A1C1A70BA1DFB1D19788F
:1007C000130001221920FFF7C4FFC046BD4602B046
:1007D00080BD000080B584B000AF78607B68FB60AE
:1007E000FB681B881A0080231B01134006D0FB689E
:1007F0001B88044A13439AB2FB681A80C046BD4660
:1008000004B080BD00F0FFFF80B500AFFFF736FFFA
:1008100057212020FFF7C8FF00212120FFF7C4FF48
:1008200000212220FFF7C0FF08212320FFF7BCFF93
:1008300000212420FFF7B8FF00212520FFF7B4FF97
:10084000C046BD4680BD80B586B000AFF860B960D7
:100850007A601023FB180622A8211920FFF74EFF0B
:100860001023FB185B781B021022BA18127813436E
:100870001B111AB2FB681A801023FB18DB781B02CD
:100880001022BA18927813431B111AB2BB681A804F
:100890001023FB185B791B021022BA18127913433C
:1008A0001B111AB27B681A80FB681800FFF792FFD1
:1008B000BB681800FFF78EFF7B681800FFF78AFF00
:1008C000C046BD4606B080BD80B584B000AF78603C
:1008D0000F23FB1800221A7017E00F23FA180F23BA
:1008E000FB181B78191C8900CB18DB1813707B6868
:1008F0001A780F23FB181B78D318DAB20F23FB18D2
:10090000303A1A707B6801337B607B681B78642BFC
:1009100003D07B681B78782BDFD10F23FB181B7863
:100920001800BD4604B080BD80B584B000AF0200A1
:100930003960FB1D1A703B68002B01D101232DE0AB
:100940000F23FB1800221A703B68002B03DA0F23D9
:10095000FB1801221A700E23FB180A221A70FB1DC5
:100960001B78782B14D10E23FB1810221A700FE07D
:100970000F23FB181A780F23FB1801321A700E236D
:10098000FB181B781900386800F018FA03003B6068
:100990003B68002BECD10F23FB181B781800BD46D9
:1009A00004B080BD80B588B000AFF8607A600B23DA
:1009B000FB180A1C1A707B68002B03D1FB683020DF
:1009C00098479AE01F23FB180A221A700B23FB1882
:1009D0001B78782B03D11F23FB1810221A701E23BB
:1009E000FB1800221A700023BB611723FB1800229A
:1009F0001A707B68002B2ADA1723FB1801221A7061
:100A00007B685B427B6022E01F23FB181A78BB697E
:100A10005343BB611F23FB181A787B681100180031
:100A200000F0B2FA0B001A00BB699B18BB611F23D0
:100A3000FB181B781900786800F0C0F903007B6090
:100A40001E23FB181A781E23FB1801321A707B68CC
:100A5000002BD9D11723FB181B78002B3AD0FB6849
:100A60002D20984736E01F23FB181A78BB69110028
:100A7000180000F089FA0B001A001523FB181A70F1
:100A80001523FB181B78092B07D81623FB181522F2
:100A9000BA18127830321A7006E01623FB181522A5
:100AA000BA18127857321A701623FB181A78FB6896
:100AB000100098471F23FB181B781900B86900F035
:100AC0007DF90300BB611E23FB181A781E23FB1857
:100AD000013A1A70BB69002BC5D109E0FB683020D0
:100AE00098471E23FB181A781E23FB18013A1A7028
:100AF0001E23FB181B78002BF0D1BD4608B080BD2B
:100B00000EB490B588B000AF78603023FB18FB605E
:100B1000FB6AFB614DE0FB691B78252B05D0FB6967
:100B20001A787B681000984740E0FB681A1DFA604D
:100B30001B687B61FB690133FB611323FC18FB69B4
:100B40001800FFF7C1FE0300237002E0FB690133C8
:100B5000FB61FB691B78642B03D0FB691B78782B46
:100B6000F4D1FB691B781B22BC187A6911001800AC
:100B7000FFF7DAFE0300237009E07B682020984726
:100B80001B23FB181A781B23FB1801321A701B2336
:100B9000FA181323FB1812781B789A42EDD3FB69DD
:100BA00019787A697B681800FFF7FCFEFB6901334E
:100BB000FB61FB691B78002BADD1C046BD4608B078
:100BC00090BC08BC03B0184780B500AF00F036F801
:100BD000031E06D0134B144A1A60144B80221202D3
:100BE0001A6000F06BF8031E05D08023DA05C123DC
:100BF000DB000121D15000F087F8031E0ED00C4B12
:100C00001B68012B07D00A4B0A4A1A60C046084BE2
:100C10001B68012BFBD1084BC0221A60C046BD46A1
:100C200080BDC04604050040DFFF07C0186C0040CF
:100C300000EC06407593000014EC064080B500AF50
:100C40001A4B1B68FF221340012B2AD1184B1B683B
:100C50000F22134025D1174B1B68F022134006D1F9
:100C6000154B1B68F022134001D101231AE0114BF0
:100C70001B68F0221340102B06D10F4B1B68F0228B
:100C8000134001D101230DE00A4B1B68F0221340F1
:100C9000302B06D1084B1B68F022134001D10123F1
:100CA00000E000231800BD4680BDC046E00F00F004
:100CB000E40F00F0E80F00F0EC0F00F080B500AF9B
:100CC0000D4B1B68FF221340012B11D10B4B1B68EE
:100CD0000F2213400CD10A4B1B68F0221340402B0B
:100CE00006D1084B1B68F022134001D1012300E01C
:100CF00000231800BD4680BDE00F00F0E40F00F0B7
:100D0000E80F00F0EC0F00F080B500AF144B1B684B
:100D1000FF221340012B1ED1124B1B680F221340E0
:100D200019D1114B1B68F0221340A02B06D10F4B99
:100D30001B68F022134001D101230DE00A4B1B6810
:100D4000F0221340D02B06D1084B1B68F022134031
:100D500001D1012300E000231800BD4680BDC0463C
:100D6000E00F00F0E40F00F0E80F00F0EC0F00F0EF
:100D700003210A4802680A430260094802680A43DC
:100D800002600849084A094B9B1A03DD043BC85816
:100D9000D050FBDCFFF718FFFFF7ECF9240500400B
:100DA0005405004000130000000000204004002013
:100DB000FEE7FEE7FEE7FEE7FEE7FEE703460B433E
:100DC0007FD4002243088B4274D303098B425FD344
:100DD000030A8B4244D3030B8B4228D3030C8B4270
:100DE0000DD3FF22090212BA030C8B4202D3121256
:100DF000090265D0030B8B4219D300E0090AC30B2B
:100E00008B4201D3CB03C01A5241830B8B4201D3D7
:100E10008B03C01A5241430B8B4201D34B03C01AC0
:100E20005241030B8B4201D30B03C01A5241C30A38
:100E30008B4201D3CB02C01A5241830A8B4201D3A9
:100E40008B02C01A5241430A8B4201D34B02C01A93
:100E50005241030A8B4201D30B02C01A5241CDD238
:100E6000C3098B4201D3CB01C01A524183098B4283
:100E700001D38B01C01A524143098B4201D34B016C
:100E8000C01A524103098B4201D30B01C01A5241CF
:100E9000C3088B4201D3CB00C01A524183088B4256
:100EA00001D38B00C01A524143088B4201D34B003F
:100EB000C01A5241411A00D20146524110467047B1
:100EC0005DE0CA0F00D04942031000D340425340B6
:100ED00000229C4603098B422DD3030A8B4212D376
:100EE000FC22890112BA030A8B420CD389019211A8
:100EF0008B4208D3890192118B4204D389013AD0E5
:100F0000921100E08909C3098B4201D3CB01C01AB9
:100F1000524183098B4201D38B01C01A52414309CC
:100F20008B4201D34B01C01A524103098B4201D3BA
:100F30000B01C01A5241C3088B4201D3CB00C01A27
:100F4000524183088B4201D38B00C01A5241D9D23F
:100F500043088B4201D34B00C01A5241411A00D2C0
:100F60000146634652415B10104601D34042002BBC
:100F700000D54942704763465B1000D3404201B53B
:100F8000002000F005F802BD0029F8D016E77047F0
:100F90007047C04610B5010000230022002000F079
:100FA00099F810BD10B50021040000F0FDF8044BC5
:100FB0001868C36B002B00D09847200000F07CF924
:100FC000EC12000070B5094B094CE41AA41009D0CA
:100FD000084AA518AD00ED182B68013C9847043D60
:100FE000002CF9D100F070F970BDC0463804002023
:100FF0003C040020FFFFFF3F70B50D4E0D4D002457
:10100000AD1BAD1005D0A300F35801349847A5429D
:10101000F9D100F053F9084E084D0024AD1BAD1076
:1010200005D0A300F35801349847A542F9D170BD0B
:101030003004002030040020300400203804002058
:10104000F0B5830743D0541E002A3FD0CEB2020031
:10105000032502E01A00013C38D3531C16702B42C2
:10106000F8D1032C2AD9FF220A40150215432A047D
:1010700015430F2C14D927001A00103F3E090136E2
:1010800036019E19156055609560D5601032964204
:10109000F8D10F2297431037DB191440032C0DD9D8
:1010A0001A00271FBE080136B6009E1920C2B242A0
:1010B000FCD1032297430437DB191440002C05D0E0
:1010C000C9B21C19197001339C42FBD1F0BD140048
:1010D0000300C6E7F8B5DE469B46314B45461C6823
:1010E000A4234E4657465B00E0B50500E0580E00CD
:1010F000904600284BD043681F2B0DDC5C1C002D54
:1011000021D102339B0044601E5000203CBC90461D
:101110009946A246AB46F8BD224B002B3CD0C820D6
:10112000400000E000BF002836D0A4220023520077
:10113000A15843600160A050403283500432835074
:101140000124002DDDD09A00914681444246882139
:101150004F467A50C4225200904680444246873916
:10116000994012688A460A43944642466146116095
:10117000842249465F4652008F50022DC1D10200A1
:1011800055468D32FF3211680D431560B9E72000D6
:101190004D30FF30E050AEE701204042B6E7C04698
:1011A000EC12000000000000F0B55746DE464E4647
:1011B0004546E0B50F00384B85B01B68019002939F
:1011C0004933FF330393A422029B52009E58002E02
:1011D0004ED0039B9946C4235B00984604339A463D
:1011E0007468B044A5007519B244013C08D52DE0DF
:1011F0006B1DFF331B689F4204D0043D013C25D387
:10120000002FF5D173686A68013BA34239D00023EF
:101210006B60002AF1D0736841469B460123A340CE
:10122000096819422BD05146096819422BD12B006D
:10123000843319680198904773685B45C3D14B4666
:101240001B68B342BFD1043D013CD9D2134B002BE4
:101250000ED07368002B1BD13368002B08D04A4690
:101260003000136000E000BF4B461E68002EB2D174
:1012700005B03CBC90469946A246AB46F0BD9047AF
:10128000DAE77460C5E72B00843318689047D3E72A
:10129000B1463668EAE7C046EC12000000000000E4
:1012A000034B10B5002B02D00248FFF773FE10BDB0
:1012B00000000000C50F0000FEE7C046F8B5C046BC
:1012C000F8BC08BC9E467047F8B5C046F8BC08BCE0
:1012D0009E467047583A2025366420593A202536D4
:1012E00064205A3A202536640A0D000008000020C8
:0812F0004300000000000000B3
:0812F8007CEEFF7F0100000005
:10130000080000200000000000000000F40200209F
:101310005C030020C4030020000000000000000067
:1013200000000000000000000000000000000000BD
:10133000000000000000000000000000F0120000AB
:10134000000000000000000000000000000000009D
:10135000000000000000000000000000000000008D
:10136000000000000000000000000000000000007D
:10137000000000000000000000000000000000006D
:10138000000000000000000000000000000000005D
:10139000000000000000000000000000000000004D
:1013A000000000000000000000000000000000003D
:1013B00001000000000000000E33CDAB34126DE6DA
:1013C000ECDE05000B000000000000000000000043
:1013D000000000000000000000000000000000000D
:1013E00000000000000000000000000000000000FD
:1013F00000000000000000000000000000000000ED
:1014000000000000000000000000000000000000DC
:10173000A1120000390100000D01000000000000AE
:0400000300000D717B
:00000001FF
